:100000000C941B010C9443010C9443010C94430188
:100010000C9443010C9443010C9443010C94430150
:100020000C9443010C9443010C9443010C9433064B
:100030000C9443010C9443010C9443010C94430130
:100040000C94C10F0C9443010C9482120C94B412C2
:100050000C9443010C9443010C9443010C94430110
:100060000C940F0B0C944301084AD73B3BCE016E16
:1000700084BCBFFDC12F3D6C74319ABD56833DDAFF
:100080003D00C77F11BED9E4BB4C3E916BAAAABE0E
:10009000000000803F004E414E494E495459494EA0
:1000A00046CDCCCC3D0AD7233C17B7D13877CC2BE3
:1000B000329595E6241FB14F0A000020410000C888
:1000C0004200401C4620BCBE4CCA1B0E5AAEC59D09
:1000D0007400407A10F35A00A0724E18090010A55F
:1000E000D4E80000E87648170000E40B5402000052
:1000F000CA9A3B000000E1F50500008096980000D8
:100100000040420F000000A0860100000010270000
:10011000000000E803000000006400000000000A86
:1001200000000000000100000000002C76D888DCF0
:10013000674F0823DFC1DFAE59E1B1B796E5E3E4CD
:1001400053C63AE651997696E8E6C28426EB898C46
:100150009B62ED407C6FFCEFBC9C9F40F2BAA56FA8
:10016000A5F490055A2AF75C936B6CF9676DC11B77
:10017000FCE0E40D47FEF520E6B500D0ED902E033F
:1001800000943577050080841E080000204E0A0088
:100190000000C80C333333330F986E12831141EFD4
:1001A0008D2114893BE65516CFFEE6DB18D1844B32
:1001B000381BF77C1D901DA4BBE424203284725EA2
:1001C000228100C9F124ECA1E53D270000000900CF
:1001D0000302000004050800000000000000000009
:1001E00000000102040810204080010204081020D1
:1001F00001020408102040804004040404040404A4
:1002000004020202020202030303030303020203C5
:100210000000000023002600290000000000250047
:1002200028002B0000000000240027002A003B03C8
:10023000000AE412610311241FBECFEFD8E0DEBF35
:10024000CDBF11E0A0E0B1E0EEEEF1E402C0059018
:100250000D92AC3BB107D9F724E0ACEBB1E001C0A3
:100260001D92AC31B207E1F711E0CAE1D1E004C060
:100270002197FE010E944C1AC731D107C9F70E948D
:10028000CE160C94EA200C940000CF92DF92EF92ED
:10029000FF920F931F93E82FF92F05C0015011090A
:1002A0002109310961F1908196239417B9F305C0B2
:1002B000015011092109310911F1908196239413FC
:1002C000F7CFC12CD12CE12CF12C0AC08FEFC81A2A
:1002D000D80AE80AF80A0C151D052E053F0579F025
:1002E00080818623841791F36C2D7D2D8E2D9F2D7B
:1002F0001F910F91FF90EF90DF90CF90089560E0F5
:1003000070E080E090E01F910F91FF90EF90DF9000
:10031000CF900895CF93DF93EC0160E08BE00E94D3
:10032000011160E08AE00E94011160E08CE00E940F
:10033000011160E08DE00E94011181E090E099835D
:100340008883DF91CF9108951F93CF93DF93CDB72B
:10035000DEB72C970FB6F894DEBF0FBECDBF66E3B5
:1003600071E0CE0107960E942214BE01695F7F4FA3
:1003700089ED91E00E94B11510E08823A9F068E3AF
:1003800071E0CE0101960E942214BE016F5F7F4F83
:1003900089ED91E00E94C01511E0811101C010E0CB
:1003A000CE0101960E94B313CE0107960E94B313AB
:1003B000812F2C960FB6F894DEBF0FBECDBFDF9114
:1003C000CF911F910895CF93DF93EC0126E040E891
:1003D00055E260E070E088E793E00E942A128BEA21
:1003E00092E00E94650985EE91E00E944E0F61E067
:1003F0008BE00E94C51061E08AE00E94C51061E0B8
:100400008CE00E94C51061E08DE00E94C510CE0115
:1004100003960E948A0161E087E00E94C51060E0B7
:1004200088E00E94C51061E08EE00E94C51060E087
:100430008FE00E94C51060E087E00E94011160E03B
:100440008EE00E9401116CED75E080E090E00E946A
:10045000301069E070E082E892E00E94880770E066
:1004600060E082E892E00E94C50764E670E08FEDEC
:1004700091E00E94E41364E670E089ED91E00E944F
:10048000E41364E670E083ED91E00E94E4136FE012
:1004900070E08DEC91E00E94E4136FE070E087EC77
:1004A00091E0DF91CF910C94E413CF93DF93EC01B3
:1004B0006BEB71E08FED91E00E94AA146AE371E0AA
:1004C0008FED91E00E94EC146B817C818FED91E0C7
:1004D0000E940E1563E471E08FED91E00E94EC1430
:1004E0006A8170E08FED91E00E940E156DE471E07D
:1004F0008FED91E00E94EC146DEC71E08FED91E0D6
:100500000E94E51465E571E08FED91E00E94EC1426
:1005100067EC71E08FED91E00E94E5146DE571E00C
:100520008FED91E00E94EC144091C3015091C40101
:100530006091C5017091C6018FED91E00E943E155A
:1005400066E671E08FED91E00E94EC146D817E8192
:100550008FED91E00E940E156EE671E08FED91E057
:10056000DF91CF910C94EC147F928F929F92AF9277
:10057000BF92CF92DF92EF92FF920F931F93CF9390
:10058000DF9300D000D000D0CDB7DEB74C017A01A8
:1005900059016BEB71E0CA010E94AA14D12CC12C45
:1005A000712C0150110BF50184819581C816D90673
:1005B000C8F4B601C5010E94E015FC0180818C32AF
:1005C00009F473947016110649F4B601C5010E942E
:1005D000E015FC016081C7010E94FB14FFEFCF1AF8
:1005E000DF0AE1CF60E771E0CE0101960E9422149C
:1005F000BE016F5F7F4FC7010E94B115182FCE015A
:1006000001960E94B3131123C9F06CE2C7010E9446
:100610000E16F70124813581AC014F5F5F4FB701A2
:10062000CE0101960E941216BE016F5F7F4FC70177
:100630000E949E14CE0101960E94B313B701C4011B
:100640000E949514C40126960FB6F894DEBF0FBE23
:10065000CDBFDF91CF911F910F91FF90EF90DF9071
:10066000CF90BF90AF909F908F907F9008958CEB2C
:1006700091E00C94E30182E892E00E94EE0685EEA0
:1006800091E00E942F0C6BEB71E08FED91E00E94E6
:1006900022146BEB71E089ED91E00E9422146BEB68
:1006A00071E083ED91E00E9422146BEB71E08DEC20
:1006B00091E00E9422146BEB71E087EC91E00C94C6
:1006C000221487EC91E00E94B3138DEC91E00E941C
:1006D000B31383ED91E00E94B31389ED91E00E9482
:1006E000B3138FED91E00C94B313EF92FF920F933D
:1006F0001F93CF93DF93CDB7DEB72C970FB6F89447
:10070000DEBF0FBECDBF7C016BEB71E089ED91E0E8
:100710000E94AA1449E150E063E270E08BEA92E0A3
:100720000E94FA098BEA92E00E94A908892B51F0F5
:100730008BEA92E00E94B008682F89ED91E00E9458
:10074000FB14F0CF8091DD019091DE01029708F457
:100750008BC06BE389ED91E00E940E169C0150E086
:1007600040E069ED71E0CE0101960E941216BE01D3
:100770006F5F7F4F89ED91E00E949E14CE0101963C
:100780000E94B3130E94A401882309F46DC06DE593
:1007900089ED91E00E940E168C016BE589ED91E0E8
:1007A0000E940E16AC014F5F5F4F980169ED71E03A
:1007B000CE0101960E941216BE016F5F7F4F89ED38
:1007C00091E00E949E14CE0101960E94B31369ED40
:1007D00071E0CE0107960E94951401E09E01295F09
:1007E0003F4F43ED51E0B701CE0101960E94B402A4
:1007F000BE016F5F7F4F8DEC91E00E949E14CE0191
:1008000001960E94B313CE0107960E94B31369EDBF
:1008100071E0CE0107960E94951402E09E01295FC7
:100820003F4F43ED51E0B701CE0101960E94B40263
:10083000BE016F5F7F4F87EC91E00E949E14CE0156
:1008400001960E94B313CE0107960E94B3138DEC5C
:1008500091E00E94CB1620E030E0A9010E94BD1774
:10086000811115C0F70112826BEB71E089ED91E007
:100870000E94AA142C960FB6F894DEBF0FBECDBF0F
:10088000DF91CF911F910F91FF90EF90089587EC2A
:1008900091E00E94CB1620E030E0A9010E94BD1734
:1008A000882301F381E0F7018283DECFEF92FF928C
:1008B0000F931F93CF93DF93CDB7DEB762970FB639
:1008C000F894DEBF0FBECDBF7C0188E793E00E94A5
:1008D0005711892BB9F088E793E00E945711181639
:1008E000190684F463E070E080E090E00E9430102C
:1008F00088E793E00E947111682F89ED91E00E94D2
:10090000FB14E9CF8091DD019091DE01892B09F480
:1009100092C089ED91E00E9458160E94A40188239C
:1009200009F4DDC06DE589ED91E00E940E168C01A1
:100930006BE589ED91E00E940E16AC014F5F5F4FB1
:10094000980169ED71E0CE0101960E941216BE0178
:100950006F5F7F4F89ED91E00E949E14CE0101965A
:100960000E94B31369ED71E0CE0101960E949514C7
:1009700001E09E012F5F3F4F43ED51E0B701CE01F3
:100980000D960E94B402CE0101960E94B31363E754
:1009900071E0CE010D960E946F158823E9F069ED94
:1009A00071E0CE0107960E94951402E09E01295F36
:1009B0003F4F43ED51E0B701CE0101960E94B402D2
:1009C000CE0101960E94B516CE0101960E94B31386
:1009D000CE0107960E94B31362E771E0CE010D9637
:1009E0000E946F158823E9F069ED71E0CE0107964A
:1009F0000E94951402E09E01295F3F4F43ED51E0B4
:100A0000B701CE0101960E94B402CE0101960E9468
:100A1000B516CE0101960E94B313CE0107960E942F
:100A2000B313CE010D960E94B3136BEB71E089ED09
:100A300091E00E94AA14F70181818111F3C060E066
:100A40008EE00E94011161E08EE00E9401118AE0B7
:100A500090E00E94691060E08EE00E94011120E4A5
:100A600032E44FE050E061E08FE00E942F11969554
:100A70008795779567950E946A1829EB3CEF47E0C8
:100A80005DE30E944B196093C3017093C40180938E
:100A9000C5019093C60120E030E040E752E40E9497
:100AA000BD1718160CF4BEC0F7018081811199C0E2
:100AB00082E892E00E9441088C010B3511050CF090
:100AC0008DC0B80182E892E00E94C5076FE070E037
:100AD00080E090E00E9430100F5F1F4FEECF66E77E
:100AE00071E089ED91E00E946F15882391F0C701B4
:100AF00003960E948A0161E08BE00E94011161E08F
:100B00008CE00E94011182E090E0F70194838383DE
:100B10008CCF6BE771E089ED91E00E946F1588231F
:100B200079F0C70103960E948A0161E08AE00E9481
:100B3000011161E08DE00E94011183E090E0E5CFBA
:100B400060E871E089ED91E00E946F15882379F0EB
:100B5000C70103960E948A0161E08BE00E940111A7
:100B600061E08DE00E94011185E090E0CECF64E865
:100B700071E089ED91E00E946F15882379F0C7013B
:100B800003960E948A0161E08CE00E94011161E0FD
:100B90008AE00E94011184E090E0B7CF68E871E03C
:100BA00089ED91E00E946F15882329F0C701039613
:100BB0000E948A013ACF6EE871E089ED91E00E94CF
:100BC0006F15882309F431CFC7010E9455026FEDDC
:100BD00071E088E793E00E945F1327CF81E0F7017F
:100BE000808368E873E180E090E00E943010F701B4
:100BF00080818823B9F082E892E00E9441088C014C
:100C000017FD0EC0B80182E892E00E94C5076FE0B0
:100C100070E080E090E00E94301001501109F0CFA8
:100C2000F7011082F701118285EE91E00E94610FB9
:100C300085EE91E00E94F50EF70196838583C7014A
:100C40000E94750362960FB6F894DEBF0FBECDBF4B
:100C5000DF91CF911F910F91FF90EF9008958CEB52
:100C600091E00C9456041F920F920FB60F9211242C
:100C70002F933F934F935F936F937F938F939F93A4
:100C8000AF93BF93EF93FF938091860287FF27C0B6
:100C90001092850010928400809186028F5F80936D
:100CA000860280918602082E000C990B2091850205
:100CB0002817190629F024F0809186028C30DCF187
:100CC0008091840090918500049680349C4908F4BA
:100CD0007BC08091840090918500049677C08091BC
:100CE0008602082E000C990B209185022817190600
:100CF00099F294F2E09186028E2FEE0F990BFC018F
:100D0000EE0FFF1FE80FF91FE957FD4F808186FFA7
:100D1000C3CFE09186028E2FEE0F990BFC01EE0FF0
:100D2000FF1FE80FF91FE957FD4F808160E08F73C7
:100D30000E940111B1CF2091840030918500E09193
:100D400086028E2FEE0F990BFC01EE0FFF1FE80FAE
:100D5000F91FE957FD4F81819281820F931F909374
:100D6000890080938800E09186028E2FEE0F990B08
:100D7000FC01EE0FFF1FE80FF91FE957FD4F8081BF
:100D800086FF11C0E09186028E2FEE0F990BFC01B9
:100D9000EE0FFF1FE80FF91FE957FD4F808161E05B
:100DA0008F730E940111FF91EF91BF91AF919F91BD
:100DB0008F917F916F915F914F913F912F910F9004
:100DC0000FBE0F901F90189580E49CE990938900C6
:100DD000809388008FEF80938602E5CFFC0190918D
:100DE00085029C3098F481E0890F8093850290837E
:100DF000892F90E0FC01EE0FFF1FE80FF91FE95764
:100E0000FD4F88EB9BE09283818308958FEF808371
:100E10000895DF92EF92FF920F931F93CF93DF938A
:100E2000EC01D62E7A01890188818C3008F067C0E8
:100E300061E08D2D0E94C5108881282F30E0F901D6
:100E4000EE0FFF1FE20FF31FE957FD4F9D2D9F731C
:100E50006081607C692B608320E232E02E193F09BB
:100E600037FF02C02D5F3F4F359527953595279564
:100E7000298320E639E0201B310B37FF02C02D5FAC
:100E80003F4F35952795359527952A832CE0622F7E
:100E90000E94CC19829FB001112430E020E0AB0108
:100EA000420F531FFA01EE0FFF1FE40FF51FE95722
:100EB000FD4F908196FD16C02F5F3F4F2C303105BE
:100EC00071F781110FC01092800082E08093810041
:100ED0001092850010928400B19A80916F00826018
:100EE00080936F00E8818E2F90E0FC01EE0FFF1FD2
:100EF000E80FF91FE957FD4F808180648083888166
:100F0000DF91CF911F910F91FF90EF90DF900895A7
:100F100020E639E040E252E00C940907DC01EC9154
:100F2000EC3090F511968C91119728E830E0281B51
:100F3000310987FD3395220F331F220F331F6217AC
:100F4000730784F012968C9128E532E0281B310952
:100F500087FD3395220F331F220F331F621773074C
:100F60000CF49B0122503109220F331F4FB7F89424
:100F70008E2F90E0FC01EE0FFF1FE80FF91FE957DD
:100F8000FD4F328321834FBF0895AF92BF92CF921E
:100F9000DF92EF92FF920F931F93CF93DF93EC01B9
:100FA000603282E078070CF03EC0653B710514F0BA
:100FB00064EB70E0898148E8A42EB12CA81AB1082E
:100FC00087FDB394AA0CBB1CAA0CBB1C0B2C000CF9
:100FD000CC08DD0877FF02C070E060E0072E000C4F
:100FE000880B990B2A8108E512E0021B110927FDE5
:100FF0001395000F111F000F111F012E000C220B63
:10100000330B3F932F931F930F9314EBE12EF12C8F
:1010100000E010E020E030E0A9010E9471130F9081
:101020000F900F900F90CE01DF91CF911F910F91F4
:10103000FF90EF90DF90CF90BF90AF900C948E0711
:10104000FC0180818F3FD1F090E0FC01EE0FFF1F8B
:10105000E80FF91FE957FD4F8181928133E0880F36
:10106000991F3A95E1F7B0E0A0E044E0B595A79567
:10107000979587954A95D1F70296089590E080E07C
:1010800008954F925F926F927F92AF92BF92CF92EC
:10109000DF92EF92FF920F931F93CF93DF9300D0D5
:1010A00000D0CDB7DEB7FC01428128E532E0241B39
:1010B000310947FD3395220F331F220F331FA9013A
:1010C000330F660B770B49835A836B837C832181B3
:1010D00058E8452E512C421A510827FD5394440CD0
:1010E000551C440C551C052C000C660877080E9402
:1010F00020080196BC01990F880B990B1F921F9233
:101100001F9224EB2F93A12CB12C6501E980FA806A
:101110000B811C81A30192010E9471130F900F900B
:101120000F900F90CB010F900F900F900F90DF91C9
:10113000CF911F910F91FF90EF90DF90CF90BF90D4
:10114000AF907F906F905F904F90089590E080E017
:1011500008958091DF029091E002891B990B089518
:101160009091E0028091DF022FEF3FEF981748F453
:10117000E92FF0E0EF51FD4F208130E09F5F909329
:10118000E002C9010895E091E0028091DF02E817D2
:1011900030F4F0E0EF51FD4F808190E008958FEF43
:1011A0009FEF08950895CF93DF93EC01E091B7028C
:1011B000F091B8023097F1F09091E0028091DF0257
:1011C0009817C0F090E0292F30E02617370754F425
:1011D000DE01A20FB31F4C912F513D4FD9014C930B
:1011E0009F5FF1CF1092E0026093DF02CB01DF91AD
:1011F000CF910994DF91CF910895E091B902F091D8
:10120000BA02309729F01092BD021092BC020994E4
:101210000895CF93DF931F92CDB7DEB769832091F6
:10122000BB022223F9F02091BC02203258F021E0C9
:1012300030E0FC013383228390E080E00F90DF9167
:10124000CF9108958091BD02E82FF0E0E254FD4F68
:10125000998190838F5F8093BD028093BC0281E06F
:1012600090E0ECCF61E0CE0101960E94CE0AF7CF6C
:10127000CF92DF92EF92FF920F931F93CF93DF9362
:101280007C01CB018A012091BB02222389F0EB0172
:101290006B01C40ED51ECC15DD0569F06991D7012F
:1012A000ED91FC910190F081E02DC7010995F3CFFC
:1012B000642F0E94CE0AC801DF91CF911F910F9138
:1012C000FF90EF90DF90CF9008951092E00210927F
:1012D000DF021092BD021092BC020E94110A8DEF33
:1012E00098E00E94FA0A83ED98E00C94F50A81E0F8
:1012F0008093BB026093DE021092BD021092BC028A
:1013000008950F93062F21E04091BC026EEB72E02E
:101310008091DE020E94770A1092BD021092BC02F8
:101320001092BB020F9108954F925F926F927F923D
:10133000AF92BF92CF92EF92FF920F931F93CF93F2
:10134000DF935C01F62ED42F28013901EE2019F12C
:101350000E947709CE2DC43008F0C3E0C150B8F028
:1013600028E0C29FC0011124A301920104C0569538
:101370004795379527958A95D2F7B901D501ED9113
:10138000FC910190F081E02DC5010995E7CF60E067
:10139000C5010E9481094D2FD13208F040E22C2D69
:1013A00061EE72E08F2D0E942F0A1092E00280936E
:1013B000DF02DF91CF911F910F91FF90EF90CF90BF
:1013C000BF90AF907F906F905F904F900895CF92B5
:1013D000EF920F931F93C22EE12C00E010E09801D2
:1013E0000E9494091F910F91EF90CF90089521E0F2
:1013F0000C94E70921E00C94E70961E00C94810961
:10140000EBEAF2E01382128288EE93E0A0E0B0E013
:1014100084839583A683B78389E991E09183808350
:10142000089510926E0381E080936C0310926B0319
:1014300061E082E10E94011161E083E10E940111FB
:10144000E9EBF0E080818E7F808380818D7F8083D7
:1014500088E48093B80085E48093BC00089541320D
:1014600008F043C090916E039111FCCF91E09093EE
:101470006E0320936C032FEF209301031092460319
:10148000240F2093450390936D0390916D03880F73
:10149000892B80936D0380916B03813009F5109245
:1014A0006B0380916D038093BB008091BC0083FD32
:1014B000F8CF85EC8093BC0080916E038130E1F31E
:1014C00080914603841710F440914603A7E4B3E0EB
:1014D000962FFB018E2F891B841720F0842F0895EF
:1014E00085EEE8CF8D918193F5CF40E0F7CF0F9354
:1014F000413208F04BC090916E039111FCCF92E005
:1015000090936E0300936C039FEF909301031092EE
:10151000460340934503362FA7E4B3E0FB019E2F1B
:10152000931B941770F110926D0390916D03880FC7
:10153000892B80936D0380916B03813029F5109284
:101540006B0380916D038093BB008091BC0083FD91
:10155000F8CF85EC8093BC00222321F080916E03AC
:101560008230D1F3809101038F3F91F0809101038C
:10157000803281F080910103803371F084E00F911B
:10158000089591919D93CBCF85EEE4CF81E0F7CF85
:1015900080E0F5CF82E0F3CF83E0F1CF2091230309
:1015A000260F3327331F21323105ECF420916E03CF
:1015B000FC0190E080E0243069F082E00895A09181
:1015C00023032191AC014B5D5C4FA40FB52FB11DDE
:1015D0002C930196861798F380912303680F6093EC
:1015E000230380E0089581E0089590936803809339
:1015F0006703089590936A0380936903089585EDC6
:101600008093BC008091BC0084FDFCCF10926E03DF
:10161000089585EC8093BC0010926E0308951F928C
:101620000F920FB60F9211242F933F934F935F9316
:101630006F937F938F939F93AF93BF93EF93FF939A
:101640008091B900887F803609F44CC008F03FC013
:10165000883209F4A8C018F5803109F49CC0B8F4A8
:10166000882309F4F9C0883009F495C0FF91EF91FF
:10167000BF91AF919F918F917F916F915F914F91AA
:101680003F912F910F900FBE0F901F9018958831AA
:1016900009F489C0803251F78093010315C080346A
:1016A00009F49EC048F48033B9F38833F9F6809387
:1016B00001030E94090BDACF803509F485C0883513
:1016C00009F496C0883491F60E94FF0ACFCF88397A
:1016D00009F48CC038F5883729F050F4883611F0B9
:1016E000803721F683E080936E031092020357C087
:1016F000883809F47BC0803919F0803809F0B6CFFA
:1017000080910203803208F071C0E091020381E011
:101710008E0F809302038091BB00F0E0ED5FFC4FE1
:1017200080833DC0803B39F0E0F4803A09F479C011
:10173000883A09F09BCF84E080936E0310922403D3
:1017400010922303E0916903F0916A030995809157
:10175000230381110FC081E080932303109225039E
:1017600009C0803C09F476C0883C09F473C0883B0A
:1017700009F07CCFE091240381E08E0F8093240355
:10178000F0E0EB5DFC4F80818093BB0090912403DF
:101790008091230329C080916D038093BB0085EC69
:1017A0008093BC0063CF90914603809145039817C6
:1017B00058F5E091460381E08E0F80934603F0E0F8
:1017C000E95BFC4F8081E9CFE091460381E08E0F19
:1017D000809346038091BB00F0E0E95BFC4F80837F
:1017E00090914603809145039817C8F285E8D8CFB9
:1017F000E091460381E08E0F809346038091BB0009
:10180000F0E0E95BFC4F808380916C0381115CCF39
:1018100081E080936B0384EA8093BC0010926E0396
:1018200025CF0E94090B80910203803230F4E091B1
:101830000203F0E0ED5FFC4F10826091020370E064
:10184000E0916703F091680383E093E009951092BB
:1018500002030CCF85ECE0CF1092010335CFDC0101
:101860001C9285E011968C93119712961C921297F8
:101870008DE013968C93139715961C921E921497D5
:1018800017961C921E92169719961C921E921897E4
:10189000FD01EA5BFF4F11821082329610821182A5
:1018A000128213823496108211821282138234962D
:1018B0001082118212821382349611821082329623
:1018C0001182108232961182108232961082A359B0
:1018D000BF4F80E3E6E0F1E001900D928A95E1F7D9
:1018E00008952F923F924F925F926F927F928F92C4
:1018F0009F92AF92BF92CF92DF92EF92FF920F939F
:101900001F93CF93DF93CDB7DEB72C970FB6F89424
:10191000DEBF0FBECDBF9C878B87FC01E55AFF4F12
:10192000C080D1803296A080B18032960081118132
:101930003296208031803296208131813A8329830A
:101940003296808191819C838B837501EC18FD0810
:10195000F7FE03C09FEFE91AF90AF594E794B10185
:10196000601B710B77FF02C06F5F7F4FFB01F59526
:10197000E795FE83ED836B817C8129813A81621B2F
:10198000730B77FF02C06F5F7F4FCB0195958795F3
:1019900098878F838D819E818E0D9F1DEF81F885A5
:1019A0008E0F9F1F63E070E00E94D819072E000C75
:1019B000880B990B0E946C182B013C012B853C85F0
:1019C00029593F4F3A872987CA0CDB1CD7FE03C031
:1019D0003FEFC31AD30AD594C794EB85FC85648185
:1019E00075816C197D09072E000C880B990B0E94DC
:1019F0006C184B015C01B701FF0C880B990B0E941E
:101A00006C189B01AC01C301B2010E94C2179B017B
:101A1000AC01C501B4010E944B190E943418E9853C
:101A2000FA8571836083EB84FC84F9E6EF0EF11C88
:101A3000020D131D17FF02C00F5F1F4F159507956D
:101A4000EB85FC8566817781601B710B072E000C8E
:101A5000880B990B0E946C184B015C012D813E8113
:101A6000B901330F880B990B0E946C189B01AC01D4
:101A7000C301B2010E94C2179B01AC01C501B401B0
:101A80000E944B190E943418F701718360830B8503
:101A90001C8505591F4F89819A812B813C81820FBA
:101AA000931F97FD019695958795EB85FC8560853D
:101AB0007185681B790B072E000C880B990B0E940F
:101AC0006C186B017C012F813885B901330F880BAD
:101AD000990B0E946C189B01AC01C301B2010E94DA
:101AE000C2179B01AC01C701B6010E944B190E94AD
:101AF0003418F801718360832C960FB6F894DEBF1A
:101B00000FBECDBFDF91CF911F910F91FF90EF904E
:101B1000DF90CF90BF90AF909F908F907F906F900D
:101B20005F904F903F902F9008952F923F924F9249
:101B30005F926F927F928F929F92AF92BF92CF925D
:101B4000DF92EF92FF920F931F93CF93DF93CDB766
:101B5000DEB72D970FB6F894DEBF0FBECDBF9D87C1
:101B60008C87FC018180C82CD12CEA5BFF4F8081DF
:101B700091818C159D0514F011821082AC85BD8574
:101B8000A65ABF4F2C912A87408151815D834C8397
:101B9000EC85FD85F281FB872C843D8428E4220EB0
:101BA000311C6C847D8426E0249FC001259F900D0C
:101BB00011240A96A301480F591F5B834A83512CB5
:101BC000412C912CB12CA12CC601019799878887B3
:101BD00092E0C91AD1080D2C000CEE08FF08F101A3
:101BE0004081518162817381411551056105710503
:101BF00089F0EA81FB8180819181092E000CAA0B7A
:101C0000BB0B481B590B6A0B7B0BF10140835183C3
:101C100062837383FA85FF2309F44CC0F301E95909
:101C2000FF4F60817181EA81FB8161937193FB8336
:101C3000EA83072E000C880B990BF10100811181BA
:101C400022813381600F711F821F931F6083718314
:101C500082839383FB85A5019401FF2309F464C06B
:101C60008301B0E0A0E040E0242F30E0F901EE0F66
:101C7000FF1FE20FF31FE40DF51D3596EE0FFF1F5A
:101C80002C853D85E20FF31F208131813F832E8318
:101C9000E885F985AE17BF078CF4F80122853385F6
:101CA000EE81FF81E217F3070CF44A2F11960A5FC9
:101CB0001F4FDACFF30164817581B5CFD30110E0F6
:101CC00000E01982F9812F2F30E0F901EE0FFF1F9C
:101CD000E20FF31FE40DF51D3596EE0FFF1F2C8567
:101CE0003D85E20FF31F2081318148855985041716
:101CF000150764F41A964D915C911B974217530790
:101D00000CF409830F5F1F4F1696DCCFEE81FF8125
:101D10002E0F3F1F032E000C440B550B621B730B41
:101D2000840B950BA70196010E940E1AF301EC5A41
:101D3000FF4F31832083FFEF4F1A5F0A24E0220E0A
:101D4000311C32E0630E711C43E04416510409F06B
:101D500046CF8C859D858A5B9F4F9B838A838C8130
:101D60009D810196EA81FB81918380832D960FB638
:101D7000F894DEBF0FBECDBFDF91CF911F910F91C1
:101D8000FF90EF90DF90CF90BF90AF909F908F909B
:101D90007F906F905F904F903F902F900895FC013F
:101DA0002081222341F0665D7F4F660F771F860FEB
:101DB000971FFC010CC0E65AFF4F2081222351F0EF
:101DC000660F771F860F971FFC01E959FF4F80812F
:101DD000918108956E5F7F4FE8CF70E060E00C94D2
:101DE000CF0E61E070E00C94CF0ECF92DF92EF92B5
:101DF000FF920F931F93CF93DF93EC010E94ED0EA0
:101E00008C01CE010E94F10EEC01B801110F880B7C
:101E1000990B0E946C186B017C01BE01DD0F880BD1
:101E2000990B0E946C18A70196010E945E1720E092
:101E300030E044E353E40E944B192BED3FE049E4CA
:101E400050E40E94C2170E9434189B0177FF02C021
:101E500028593E4FC901DF91CF911F910F91FF90FB
:101E6000EF90DF90CF900895CF93DF93D62FC42FBC
:101E7000FC0163818BEA92E00E9477096D2F8BEA67
:101E800092E00E9409096C2F8BEA92E00E940909F6
:101E90008BEA92E0DF91CF910C94FD09CF93DF9311
:101EA000EC018BEA92E00E94650941E06BE0CE0113
:101EB0000E94340F4DE169E0CE01DF91CF910C9487
:101EC000340F0F931F93CF93DF93EC016B818BEA59
:101ED00092E00E94770960E08BEA92E00E94090993
:101EE0008BEA92E00E94FD09811146C046E06B81B9
:101EF0008BEA92E00E94F7098BEA92E00E94B00818
:101F00008C018BEA92E00E94B00820E0382F202B51
:101F1000312B3D832C838BEA92E00E94B0088C0128
:101F20008BEA92E00E94B00820E0382F202B312B62
:101F30003F832E838BEA92E00E94B0088C018BEAEB
:101F400092E00E94B00820E0382F202B312B3987F7
:101F50002887FE01E65AFF4F8081882319F0CE01C1
:101F60000E94710C8881882339F0CE01DF91CF91D6
:101F70001F910F910C94950DDF91CF911F910F91AF
:101F800008951F920F920FB60F9211242F933F9333
:101F90008F939F93AF93BF93809174039091750338
:101FA000A0917603B09177033091730323E0230F60
:101FB0002D3768F126E8230F0296A11DB11D20934D
:101FC00073038093740390937503A0937603B09387
:101FD000770380916F0390917003A0917103B0918A
:101FE00072030196A11DB11D80936F03909370033E
:101FF000A0937103B0937203BF91AF919F918F91A2
:102000003F912F910F900FBE0F901F901895019642
:10201000A11DB11DD4CF3FB7F89480916F0390916B
:102020007003A0917103B091720326B5A89B05C0FF
:102030002F3F19F00196A11DB11D3FBFBA2FA92F47
:10204000982F8827BC01CD01620F711D811D911D44
:1020500042E0660F771F881F991F4A95D1F70895B0
:102060008F929F92AF92BF92CF92DF92EF92FF92A8
:102070006B017C010E940B104B015C01C114D10467
:10208000E104F104E9F00E94DD160E940B106819CA
:1020900079098A099B09683E73408105910570F3AF
:1020A00021E0C21AD108E108F10888EE880E83E029
:1020B000981EA11CB11CC114D104E104F10429F73C
:1020C000FF90EF90DF90CF90BF90AF909F908F9058
:1020D00008958230910538F0880F991F880F991F55
:1020E00005970197F1F70895789484B5836084BDCE
:1020F00085B5836085BDEEE6F0E0808181608083F8
:10210000E1E8F0E082E08083808181608083E0E824
:10211000F0E0808181608083E1EBF0E08081846089
:102120008083E0EBF0E080818160808387E88093AA
:102130007A001092C1000895843081F028F4823032
:10214000E9F08330F9F00895883071F0893091F02A
:102150008530B9F4809180008F7D03C0809180002C
:102160008F778093800008958091B0008F7780935F
:10217000B00008958091B0008F7DF9CF84B58F773E
:1021800084BD089584B58F7DFBCFCF93DF9390E01E
:10219000FC01EE51FE4F249187509E4FFC0184912B
:1021A0008823C9F090E0880F991FFC01EC5DFD4F7A
:1021B000A591B491FC01E65EFD4FC591D4916111EA
:1021C0000DC09FB7F8948C91209582238C938881C1
:1021D000282328839FBFDF91CF910895623051F467
:1021E0009FB7F8943C91822F809583238C93E8814C
:1021F0002E2BEFCF8FB7F894EC912E2B2C938FBF13
:10220000EACF1F93CF93DF93282F30E0F901E553F6
:10221000FE4F8491F901EE51FE4FD491F901E75040
:10222000FE4FC491CC23A9F0162F81110E949C105F
:10223000EC2FF0E0EE0FFF1FE65EFD4FA591B4918D
:102240008FB7F894EC91111108C0D095DE23DC9380
:102250008FBFDF91CF911F910895DE2BF8CF0F93A1
:102260001F9390E0FC01EE51FE4F7491FC01E7508A
:10227000FE4FE4916111672FF0E0EE0FFF1FE05F6A
:10228000FD4F8591949189019A013F70462F672FE8
:102290000E944501611571058105910529F06F5F67
:1022A0007F4F8F4F9F4F9F701F910F910895FC019B
:1022B000918D228D892F90E0805C9F4F821B910928
:1022C0008F7399270895FC01918D828D981731F0B5
:1022D000828DE80FF11D858D90E008958FEF9FEFBF
:1022E0000895FC01918D828D981761F0A28DAE0F3B
:1022F000BF2FB11D5D968C91928D9F5F9F73928FC2
:1023000090E008958FEF9FEF0895FC01538D448D69
:10231000252F30E0842F90E0821B930B541710F090
:10232000CF960895019708958AED92E1892B49F09F
:1023300080E090E0892B29F00E94DA1281110C9440
:1023400000000895FC01A48DA80FB92FB11DA35A58
:10235000BF4F2C91848D90E001968F739927848FC5
:10236000A689B7892C93A089B1898C9180648C93BC
:10237000938D848D981306C00288F389E02D8081A7
:102380008F7D80830895CF93DF93EC01888D882320
:10239000B9F0AA89BB89E889F9898C9185FD03C0C8
:1023A000808186FD0DC00FB607FCF7CF8C9185FFAD
:1023B000F2CF808185FFEDCFCE010E94A211E9CF3F
:1023C000DF91CF910895EF92FF920F931F93CF93D8
:1023D000DF93EC0181E0888F9B8D8C8D981316C064
:1023E000E889F989808185FF11C0EE89FF896083C2
:1023F000E889F98980818064808381E090E0DF91C1
:10240000CF911F910F91FF90EF900895F62E0B8DB5
:1024100010E00F5F1F4F0F731127E02E8C8D8E1170
:102420000CC00FB607FCFACFE889F989808185FFD7
:10243000F5CFCE010E94A211F1CFEB8DEC0FFD2F55
:10244000F11DE35AFF4FF0820B8FEA89FB898081EF
:102450008062D2CFCF92DF92EF92FF921F93CF9301
:10246000DF93EC016A017B01122FE889F98982E090
:102470008083C11481EED806E104F104A1F060E08C
:1024800079E08DE390E0A70196010E94EC192150BC
:1024900031094109510956954795379527952115D9
:1024A00080E1380798F0E889F989108260E874E8DB
:1024B0008EE190E0A70196010E94EC1921503109AC
:1024C000410951095695479537952795EC85FD8526
:1024D0003083EE85FF852083188EEC89FD8910837B
:1024E000EA89FB89808188698083EA89FB89808108
:1024F0008F7D8083DF91CF911F91FF90EF90DF90D0
:10250000CF9008951F920F920FB60F9211242F9320
:102510008F939F93EF93FF93E0918803F09189034A
:102520008081E0918E03F0918F0382FD1BC090812A
:10253000809191038F5F8F7320919203821741F0F6
:10254000E0919103F0E0E858FC4F958F8093910360
:10255000FF91EF919F918F912F910F900FBE0F9050
:102560001F9018958081F4CF1F920F920FB60F9293
:1025700011242F933F934F935F936F937F938F9388
:102580009F93AF93BF93EF93FF9388E793E00E94ED
:10259000A211FF91EF91BF91AF919F918F917F9188
:1025A0006F915F914F913F912F910F900FBE0F90C0
:1025B0001F90189588E793E00E94571121E0892B1E
:1025C00009F420E0822F0895E8E7F3E013821282F5
:1025D00088EE93E0A0E0B0E084839583A683B78380
:1025E0008BEA91E09183808385EC90E095878487E6
:1025F00084EC90E09787868780EC90E0918B808BCD
:1026000081EC90E0938B828B82EC90E0958B848BB5
:1026100086EC90E0978B868B118E128E138E148E23
:102620000895AF92BF92CF92DF92EF92FF920F93F5
:102630001F93CF93DF936C017B018B01040F151F58
:10264000EB015E01AE18BF08C017D10759F06991C0
:10265000D601ED91FC910190F081E02DC601099524
:10266000892B79F7C501DF91CF911F910F91FF90D1
:10267000EF90DF90CF90BF90AF900895FB01019055
:102680000020E9F73197AF01461B570BDC01ED91B4
:10269000FC910280F381E02D0994DB0114964D91A9
:1026A0005C9115976D917C91DC01ED91FC9102801C
:1026B000F381E02D099469EB71E00C943E130F93C4
:1026C0001F93CF93DF93EC010E944D138C01CE0139
:1026D0000E945B13800F911FDF91CF911F910F918B
:1026E00008954F925F926F927F92AF92BF92CF9276
:1026F000DF92EF92FF920F931F93CF93DF93CDB7AB
:10270000DEB729013A019B01AC01241935094609BC
:10271000570989899A89AB89BC89BC01CD016A199D
:102720007B098C099D090E94BC19A80197012419F5
:102730003509460957090E940E1ACA01B9016A0DE6
:102740007B1D8C1D9D1DDF91CF911F910F91FF90DF
:10275000EF90DF90CF90BF90AF907F906F905F90A1
:102760004F9008950895FC01808191810C941B1B6A
:10277000CF93DF93EC0188819981009711F00E943B
:102780001B1B198218821D821C821B821A82DF91F8
:10279000CF9108950F931F93CF93DF93EC018B019B
:1027A0006F5F7F4F888199810E94A41B009751F031
:1027B000998388831B830A8381E0DF91CF911F91E6
:1027C0000F91089580E0F9CFCF93DF93EC018881DA
:1027D0009981892B49F08A819B818617970720F080
:1027E00081E0DF91CF910895CE010E94CA13882322
:1027F000C1F38C819D81892B99F7E881F981108241
:10280000EFCFEF92FF920F931F93CF93DF93EC01E3
:102810007B018A01BA010E94E41381110BC0CE0131
:102820000E94B813CE01DF91CF911F910F91FF90BD
:10283000EF9008951D830C83B701888199810E94D0
:10284000B21CF0CFFC011182108213821282158219
:1028500014826115710551F0FB0101900020E9F728
:102860003197AF01461B570B0C9401140895FB01DF
:1028700001900020E9F73197AF01461B570B0C94EC
:1028800001140F931F93CF93DF938C01EB01FC0195
:1028900080819181009701F16881798161157105CD
:1028A000C9F022EB33E1232BA9F0428153812C8123
:1028B0003D814217530770F00E94B21C8C819D81AC
:1028C000F801958384831D821C82DF91CF911F9133
:1028D0000F9108950E941B1B88819981F8019183B3
:1028E00080838A819B81938382838C819D81958360
:1028F0008483198218821B821A82E5CFCF93DF93DB
:10290000EC01FB018617970749F060817181611521
:10291000710541F0448155810E940114CE01DF917F
:10292000CF9108950E94B813F9CFFC011182108253
:1029300013821282158214820C947E14CF93DF933B
:10294000EC018617970711F00E944114CE01DF9128
:10295000CF910895CF93DF93EC016115710531F0AC
:102960000E943714CE01DF91CF9108950E94B813D1
:10297000F9CFEF92FF920F931F93CF93DF936115DF
:10298000710541F480E0DF91CF911F910F91FF908D
:10299000EF90089541155105B1F07B01EC010C81D8
:1029A0001D81040F151FB8010E94E413882351F301
:1029B000288139818C819D81B701820F931F0E94EC
:1029C000B21C1D830C8381E0DECFFB014481558165
:1029D000608171810C94B9146115710551F0FB018E
:1029E00001900020E9F73197AF01461B570B0C947B
:1029F000B91480E00895CF93DF9300D0CDB7DEB750
:102A000069831A8241E050E0BE016F5F7F4F0E94F0
:102A1000B9140F900F90DF91CF910895EF92FF922C
:102A20000F931F93CF93DF93CDB7DEB728970FB6E1
:102A3000F894DEBF0FBECDBF7C01CB014AE08E0112
:102A40000F5F1F4FB8010E94C71CF80101900020C2
:102A5000E9F73197AF01401B510BB801C7010E9444
:102A6000B91428960FB6F894DEBF0FBECDBFDF9124
:102A7000CF911F910F91FF90EF900895EF92FF92E9
:102A80000F931F93CF93DF93CDB7DEB764970FB645
:102A9000F894DEBF0FBECDBF7C01CB01BA018E0121
:102AA0000F5F1F4F22E044E00E94611AFC01019079
:102AB0000020E9F73197AF01481B590BBC01C70152
:102AC0000E94B91464960FB6F894DEBF0FBECDBF56
:102AD000DF91CF911F910F91FF90EF900895FC012E
:102AE00024813581232B31F421E0FB01672B49F44C
:102AF000822F0895808191816115710539F421E05B
:102B0000FC0180818823A1F320E0F2CF0E94A91C60
:102B100021E0892B69F3F8CFDB011496ED91FC914C
:102B2000DC0114962D913C9115972E1B3F0B241719
:102B30003507A0F02D913C912115310579F0DB018D
:102B40006D917C916115710549F0CA01AF01820F49
:102B5000931F0E94B91C21E0892B09F020E0822FED
:102B60000895FC0144815581FB0124813581421780
:102B7000530720F050E040E00C948C1580E008955D
:102B8000FC0124813581FB014481558124173507DF
:102B9000A0F0FC0180819181009779F0FB016081B8
:102BA00071816115710549F0241B350B820F931F4C
:102BB0000E94A91C21E0892B09F020E0822F0895B2
:102BC000FC01248135816217730720F48081918193
:102BD000009729F41092150485E194E00895860F7A
:102BE000971F0895CF93DF93FC012481358142170D
:102BF000530788F4C081D181062E000C770BCE01DB
:102C0000840F951F0E949E1C009729F08C1B9D0B22
:102C1000DF91CF9108958FEF9FEFFACF50E040E022
:102C20000C94F215AF92BF92CF92DF92EF92FF9287
:102C30000F931F93CF93DF935C016B017A0189019E
:102C40002417350720F48F2D7901042F182F6BEBF3
:102C500071E0C5010E942214D6011496CD91DC9139
:102C6000EC16FD06C8F40C171D0708F4E801D601A0
:102C7000ED91FC911197EC0FFD1F108110826D9169
:102C80007C916E0D7F1DC5010E94AA14F601808102
:102C90009181C80FD91F1883C501DF91CF911F9172
:102CA0000F91FF90EF90DF90CF90BF90AF9008957D
:102CB000AF92BF92CF92DF92EF92FF920F931F934A
:102CC000CF93DF93DC01CD90DC901197C114D10438
:102CD00039F01496CD91DC918C017601209761F446
:102CE000DF91CF911F910F91FF90EF90DF90CF90E8
:102CF000BF90AF90089575015701BFEFAB1ABB0AA3
:102D0000F7018081082E000C990B0E948C1C892BE6
:102D100091F72197CC0DDD1D8881082E000C990BB1
:102D20000E948C1C892B29F0CE15DF0510F021970D
:102D3000F3CFAE014F5F5F4F4E195F09D801159673
:102D40005C934E931497CE14DF0420F4B701C601B0
:102D50000E94951CD801ED91FC91119714968D91CC
:102D60009C91E80FF91F1082BBCFFC0180819181FB
:102D7000009711F00C94651C60E070E0CB010895A1
:102D8000FC0180819181009711F00C94611C60E03E
:102D900070E0CB0108950C94C01608950E94741041
:102DA0000E94CD160E943703C4E9D1E10E942F068C
:102DB0002097E1F30E949411F9CF08955058BB2752
:102DC000AA270E94F6160C9409190E94FB1838F0E5
:102DD0000E94021920F039F49F3F19F426F40C9454
:102DE000D1180EF4E095E7FB0C94CB18E92F0E9464
:102DF0001A1958F3BA17620773078407950720F06A
:102E000079F4A6F50C943C190EF4E0950B2EBA2F2C
:102E1000A02D0B01B90190010C01CA01A0011124E0
:102E2000FF27591B99F0593F50F4503E68F11A168C
:102E3000F040A22F232F342F4427585FF3CF46951D
:102E400037952795A795F0405395C9F77EF41F163F
:102E5000BA0B620B730B840BBAF09150A1F0FF0F09
:102E6000BB1F661F771F881FC2F70EC0BA0F621FF5
:102E7000731F841F48F4879577956795B795F795E5
:102E80009E3F08F0B0CF9395880F08F09927EE0F7A
:102E90009795879508950E94FB1860F080E891E06F
:102EA00009F49EEF0E94021928F040E851E071F405
:102EB0005EEF0CC00C94D1180C943C19E92FE0780B
:102EC0000E941A1940F3092E052AB1F32617370775
:102ED0004807590738F00E2E07F8E02569F0E0257D
:102EE000E0640AC0EF6307F8009407FADB01B90158
:102EF0009D01DC01CA01AD01EF930E94D9170E9428
:102F000009190E948E175F91552339F02BED3FE090
:102F100049E450FD49EC0C94DF160895DF93DD275A
:102F2000B92FBF7740E85FE31616170648075B071F
:102F300018F4D92F0E9443199F938F937F936F9317
:102F40000E94B819E8E6F0E00E94D4180E9409191E
:102F50002F913F914F915F910E945E19DD2351F0B7
:102F60009058A2EA2AED3FE049EC5FE3D0785D2774
:102F70000E94F616DF910C9409190E94A71808F414
:102F800081E008950E94D6170C9409190E94021935
:102F900058F00E94FB1840F029F45F3F29F00C9490
:102FA000CB1851110C943D190C94D1180E941A1988
:102FB00068F39923B1F3552391F3951B550BBB2768
:102FC000AA2762177307840738F09F5F5F4F220FAD
:102FD000331F441FAA1FA9F335D00E2E3AF0E0E8A4
:102FE00032D091505040E695001CCAF72BD0FE2FEE
:102FF00029D0660F771F881FBB1F26173707480782
:10300000AB07B0E809F0BB0B802DBF01FF27935839
:103010005F4F3AF09E3F510578F00C94CB180C941A
:103020003D195F3FE4F3983ED4F386957795679515
:10303000B795F7959F5FC9F7880F911D969587956E
:1030400097F90895E1E0660F771F881FBB1F62178D
:1030500073078407BA0720F0621B730B840BBA0B4B
:10306000EE1F88F7E09508950E943B186894B1110F
:103070000C943D1908950E94221988F09F5798F0EA
:10308000B92F9927B751B0F0E1F0660F771F881F6D
:10309000991F1AF0BA95C9F714C0B13091F00E9487
:1030A0003C19B1E008950C943C19672F782F8827BC
:1030B000B85F39F0B93FCCF3869577956795B395AE
:1030C000D9F73EF490958095709561957F4F8F4F1D
:1030D0009F4F0895E89409C097FB3EF49095809522
:1030E000709561957F4F8F4F9F4F9923A9F0F92FCE
:1030F00096E9BB279395F695879577956795B7954C
:10310000F111F8CFFAF4BB0F11F460FF1BC06F5F31
:103110007F4F8F4F9F4F16C0882311F096E911C043
:10312000772321F09EE8872F762F05C0662371F064
:1031300096E8862F70E060E02AF09A95660F771F78
:10314000881FDAF7880F9695879597F90895990F54
:103150000008550FAA0BE0E8FEEF16161706E80761
:10316000F907C0F012161306E407F50798F0621B82
:10317000730B840B950B39F40A2661F0232B242B57
:10318000252B21F408950A2609F4A140A6958FEF76
:10319000811D811D089597F99F6780E870E060E0C8
:1031A00008959FEF80EC0895DF93CF931F930F93C3
:1031B000FF92EF92DF927B018C01689406C0DA2EB9
:1031C000EF010E945E19FE01E894A59125913591C9
:1031D00045915591A6F3EF010E94F616FE01970165
:1031E000A801DA9469F7DF90EF90FF900F911F919B
:1031F000CF91DF91089500240A9416161706180639
:103200000906089500240A941216130614060506EA
:103210000895092E0394000C11F4882352F0BB0F7B
:1032200040F4BF2B11F460FF04C06F5F7F4F8F4FDE
:103230009F4F089557FD9058440F551F59F05F3F19
:1032400071F04795880F97FB991F61F09F3F79F0C8
:1032500087950895121613061406551FF2CF46954A
:10326000F1DF08C0161617061806991FF1CF8695CC
:103270007105610508940895E894BB2766277727B0
:10328000CB0197F908959B01AC0160E070E080E804
:103290009FE30C94C2170E945E190C9409190E94B6
:1032A000FB1838F00E94021920F0952311F00C94BD
:1032B000CB180C94D11811240C943D190E941A19A2
:1032C00070F3959FC1F3950F50E0551F629FF00179
:1032D000729FBB27F00DB11D639FAA27F00DB11D92
:1032E000AA1F649F6627B00DA11D661F829F22271B
:1032F000B00DA11D621F739FB00DA11D621F839FA2
:10330000A00D611D221F749F3327A00D611D231F77
:10331000849F600D211D822F762F6A2F11249F57C5
:1033200050409AF0F1F088234AF0EE0FFF1FBB1FC8
:10333000661F771F881F91505040A9F79E3F510587
:1033400080F00C94CB180C943D195F3FE4F3983E49
:10335000D4F3869577956795B795F795E7959F5F31
:10336000C1F7FE2B880F911D9695879597F90895C3
:103370009B01AC010C944B19DB018F939F930E942E
:103380002D1ABF91AF91A29F800D911DA39F900D0B
:10339000B29F900D11240895991B79E004C0991FE4
:1033A000961708F0961B881F7A95C9F7809508959F
:1033B00097FB072E16F4009407D077FD09D00E94E2
:1033C000381A07FC05D03EF4909581959F4F0895DB
:1033D000709561957F4F0895A1E21A2EAA1BBB1B21
:1033E000FD010DC0AA1FBB1FEE1FFF1FA217B307D1
:1033F000E407F50720F0A21BB30BE40BF50B661FE7
:10340000771F881F991F1A9469F7609570958095AA
:1034100090959B01AC01BD01CF010895052E97FB4E
:103420001EF400940E94251A57FD07D00E94EC1943
:1034300007FC03D04EF40C94251A50954095309516
:1034400021953F4F4F4F5F4F089590958095709510
:1034500061957F4F8F4F9F4F08950E94521AA59FED
:10346000900DB49F900DA49F800D911D112408957F
:10347000AA1BBB1B51E107C0AA1FBB1FA617B7079A
:1034800010F0A61BB70B881F991F5A95A9F78095B6
:103490009095BC01CD010895EE0FFF1F0590F491AA
:1034A000E02D0994A29FB001B39FC001A39F700DAE
:1034B000811D1124911DB29F700D811D1124911D3C
:1034C0000895EF920F931F93CF93DF93E80134E0B9
:1034D00047FD34E1042E000C550B57FF03C05195F6
:1034E00041955109E32E022F242FAE010E94011DA8
:1034F000CE01DF91CF911F910F91EF9008950F931F
:103500001F93CF93DF938230910510F482E090E017
:10351000E0911804F091190430E020E0B0E0A0E060
:10352000309799F42115310509F44AC0281B390B4D
:1035300024303105D8F58A819B816115710589F1A7
:10354000FB0193838283FE0111C04081518102817E
:10355000138148175907E0F04817590799F4109755
:1035600061F012960C93129713961C933296CF012A
:10357000DF91CF911F910F9108950093180410933C
:103580001904F4CF2115310551F04217530738F0D3
:10359000A901DB019A01BD01DF01F801C1CFEF01F3
:1035A000F9CF9093190480931804CDCFFE01E20F58
:1035B000F31F819391932250310939832883D7CF08
:1035C0002091160430911704232B41F4209102011D
:1035D00030910301309317042093160420910001C9
:1035E000309101012115310541F42DB73EB74091CD
:1035F000040150910501241B350BE0911604F09154
:103600001704E217F307A0F42E1B3F0B2817390706
:1036100078F0AC014E5F5F4F2417350748F04E0F2E
:103620005F1F5093170440931604819391939FCF8B
:10363000F0E0E0E09CCFCF93DF930097E9F0FC014E
:10364000329713821282A0911804B0911904ED01EF
:1036500030E020E01097A1F420813181820F931F88
:1036600020911604309117042817390709F061C01A
:10367000F0931704E0931604DF91CF910895EA01C7
:10368000CE17DF07E8F54A815B819E0141155105A0
:10369000B1F7E901FB83EA8349915991C40FD51F22
:1036A000EC17FD0761F4808191810296840F951FCC
:1036B000E90199838883828193819B838A83F0E0E7
:1036C000E0E012968D919C9113970097B9F52D919A
:1036D0003C911197CD010296820F931F2091160401
:1036E000309117042817390739F6309751F51092A1
:1036F000190410921804B0931704A0931604BCCFB9
:10370000D383C28340815181840F951FC817D90785
:1037100061F44E5F5F4F88819981480F591F518333
:1037200040838A819B81938382832115310509F02F
:10373000B0CFF0931904E09318049ECFFD01DC0193
:10374000C0CF13821282D7CFB0E0A0E0EAEAFBE15B
:103750000C94B5208C01009751F4CB010E947F1A84
:103760008C01C801CDB7DEB7E0E10C94D120FC019B
:10377000E60FF71F9C0122503109E217F30708F406
:103780009DC0D901CD91DC911197C617D70798F04C
:10379000C530D10530F3CE0104978617970708F39B
:1037A000C61BD70B2297C193D1936D937C93CF0106
:1037B0000E941B1BD6CF5B01AC1ABD0A4C018C0EBC
:1037C0009D1EA0911804B0911904512C412CF12C8C
:1037D000E12C109731F5809116049091170488150B
:1037E000990509F05CC04616570608F058C080914C
:1037F000000190910101009741F48DB79EB740916F
:10380000040150910501841B950BE817F90708F096
:1038100055C0F0931704E0931604F9017183608397
:10382000A0CF8D919C91119712966C901297139640
:103830007C901397A815B90559F56C0142E0C40EA8
:10384000D11CCA14DB0420F1AC014A195B09DA016E
:103850001296159780F06282738251834083D9015A
:103860006D937C93E114F10471F0D7011396FC93EE
:10387000EE93129776CF22968C0F9D1FF9019183BC
:103880008083F301EFCFF0931904E093180469CF1C
:103890004816590608F42C017D01D3019ACFCB01BB
:1038A0000E947F1A7C01009749F0AE01B8010E9486
:1038B000951CC8010E941B1B870153CF10E000E03C
:1038C00050CF662777270C94601E1F93FC01992721
:1038D0008827BC01E89411911032E9F3193010F0F7
:1038E0001E30C8F31B3251F01D3249F4689406C0F3
:1038F0000E94D21C610F711D811D911D11911053E9
:103900001A30B0F33EF490958095709561957F4F95
:103910008F4F9F4F1F91089591110C9488208032F2
:1039200019F089508550C8F70895FB01DC0102C0E9
:1039300001900D9241505040D8F70895FC018191BB
:10394000861721F08823D9F7992708953197CF0159
:103950000895FB01DC018D91019080190110D9F3CC
:10396000990B0895FB01DC0101900D920020E1F715
:103970000895FB01DC014150504030F08D910190E1
:10398000801919F40020B9F7881B990B0895BB27FB
:103990004A3031F4992322F4BDE2909581959F4FEE
:1039A0000C94E81C592F482F372F262F660F771FAE
:1039B000881F991F660F771F881F991F620F731F3B
:1039C000841F951F660F771F881F991F0895BB27B7
:1039D000FB015527AA27880F991FAA1FA41710F0CB
:1039E000A41B83955051B9F7A05DAA3308F0A95DD7
:1039F000A193009779F7B111B1931192CB010C9477
:103A0000A320A9E0B0E0E7E0FDE10C94B9206A0151
:103A1000F22EB02E102FFBE3AF2EA01608F41BE3FE
:103A20001F5F012F27E0AE014F5F5F4F0E94B01F65
:103A3000BC018981982F9970913009F43FC09BE2B5
:103A4000E1FC04C09E2D9170E0FC3AC05E2D5071E7
:103A5000E82FE87083FF46C084E0911101C083E045
:103A6000EF2DE81B8F1508F0E0E0D6018E2F20E245
:103A7000552351F1992329F0D6019C93C601019653
:103A80006C0196012D5F3F4FE2FE24C08EE4D6010B
:103A90008C9391E411969C93119712968C93D90173
:103AA0008E2F90E281111BC0E20FF32FF11D1082C7
:103AB0008EEF9FEF2996ECE00C94D5209DE2C6CFC7
:103AC00090E2C4CF2D9381508111FCCFCE0ED11C3A
:103AD000E0E0D0CF8EE6D6018C9391E6DBCF9D93CC
:103AE0008150E0CF482F447082FF3DC084E09111A7
:103AF00001C083E08F1510F4EF2DE81BD6018E2F47
:103B000020E2552309F1992329F0D6019C93C6019F
:103B100001966C0196012D5F3F4FE2FE1BC089E4C8
:103B2000D6018C938EE411968C93119786E41296AD
:103B30008C93D9018E2F90E2882309F4B5CF9D9301
:103B40008150FACF2D9381508111FCCFCE0ED11C24
:103B5000E0E0D9CF89E6D6018C938EE611968C935E
:103B6000119786E6E4CF9B0177FF02C030E020E0AA
:103B7000A1E0B0E0911102C0B0E0A0E0F9013196FF
:103B8000AE0FBF1F8B2C912CBB2009F461C05401D8
:103B9000EFEFAE1ABE0AAA0DBB1DFA161B0619F0EE
:103BA00014F04F2D4A1B511188C0E3FC59C0760117
:103BB000A42FB0E2A1114FC0C40ED11C992309F467
:103BC0005BC040E0D6011196F60190836D0155234C
:103BD00009F448C0012F060F9A81582F507184FFB5
:103BE00003C0913309F4015010160CF047C009309E
:103BF00008F008E0EEE2FE2E5B01A01AB108850194
:103C00009194819491082F3F320729F4D601FC92B8
:103C1000F60131966F016217730794F102171307CB
:103C20007CF5DB01A21BB30BAA24A394B12CAC0E30
:103C3000BD1EAA0DBB1D11968C9121503109D601D4
:103C4000119628153905F4F0F60180836D01DBCF5C
:103C5000B12CA12CA0CFF701B1937F01A150AACF25
:103C60009111B0CFD601942F50E302C05D939150D3
:103C70009111FCCFC40ED11C40E0ACCF01E0BACF13
:103C800080E3DBCF6217730731F4963388F4953302
:103C900011F4552369F0F6018083FD01842F90E231
:103CA000811108C0A40FB11D1C9290E080E002CFEA
:103CB00081E3F1CF91938150F3CF911183CF8ACFDC
:103CC000B0E0A0E0E6E6FEE10C94B9205C017B01E7
:103CD0006115710519F0DB018D939C9385010F5FD0
:103CE0001F4FF501D0818D2F90E00E948C1C6C013C
:103CF000892BB9F5DD32B9F50F5F1F4FD50111964C
:103D0000DC91C1E05801F1E0AF1AB10843E050E0A6
:103D10006EE970E0C5010E948B20892B69F568016E
:103D200082E0C80ED11C45E050E069E970E0C601B0
:103D30000E948B20892B21F4680197E0C90ED11CC9
:103D4000E114F10419F0D701CD92DC9260E070E04B
:103D500080E89FEFC111FFC060E070E080E89FE75E
:103D6000FAC05801BBCFDB3229F485010E5F1F4F2B
:103D7000F501D181C0E0C6CF43E050E066E970E0D4
:103D8000C5010E948B20892BE9F0F80110E000E0CA
:103D900020E030E0A9015F01B0ED8B2E8D0E89E0AF
:103DA0008815C8F19C2E689491F88C2F8870C2FFFA
:103DB00016C0811102C00F5F1F4F3196D501DC91F3
:103DC000C92DE9CFE114F10429F00E5F1F4FF7016F
:103DD0001183008360E070E080EC9FE7BCC0882323
:103DE00011F001501109A5E0B0E00E942D1A9B01CD
:103DF000AC01220F331F441F551F280D311D411DDB
:103E0000511D283999E93907490799E15907A8F25D
:103E1000C6609C2ED2CFAEEF8A1206C0C3FD3CC056
:103E20009C2E689493F8C9CFDF7DD534A9F58081A5
:103E30008D3239F4C061DF011296818162E070E059
:103E400006C0DF018B32C1F3119661E070E0805350
:103E50005D01A61AB70A8A30F8F4E0E8CE16ECE065
:103E6000DE065CF4B601660F771F660F771FC60E7D
:103E7000D71ECC0CDD1CC80ED11C5D01FFEFAF1AA4
:103E8000BF0A8C9180538A30A8F1C4FF03C0D1943B
:103E9000C194D1080C0D1D1DC1FF09C0E114F1042E
:103EA00031F081E0A81AB108D701AD92BC92CA01E5
:103EB000B9010E946A18C370C33009F490584B01CD
:103EC0005C0120E030E0A9010E94BD17882309F4BD
:103ED00040C0CDECD0E017FF05C011950195110948
:103EE000C5EBD0E06E01B8E1CB1AD10880E2E82E34
:103EF000F12C0FC0D501B1CFFE012591359145912F
:103F000054910E191F09C501B4010E944B194B01B0
:103F10005C01D501C4010E151F0574F72497F594B3
:103F2000E794CC16DD06A9F78A2F880F8B2F881F00
:103F30008F3F49F020E030E0A901C501B4010E94A3
:103F4000BD17811106C082E290E090931B0480931C
:103F50001A04C501B401CDB7DEB7ECE00C94D5204E
:103F6000283008F027E03327DA01990F311D87FD4B
:103F7000916000966105710539F432602E5F3D93C2
:103F800030E32A95E1F708959F3F30F080387105BE
:103F9000610509F03C5F3C5F3D93913008F080681B
:103FA000911DDF93CF931F930F93FF92EF92192FE1
:103FB000987F9695E92F96959695E90FFF27E55DF1
:103FC000FE4F99273327EE24FF24A701E701059030
:103FD0000894079428F4360FE71EF81E491F511D58
:103FE000660F771F881F991F0694A1F70590079405
:103FF00028F4E70EF81E491F561FC11D770F881FB2
:10400000991F661F0694A1F70590079428F4F80EEF
:10401000491F561FC71FD11D880F991F661F771F85
:104020000694A1F70590079420F4490F561FC71F67
:10403000D81F990F661F771F881F0694A9F78491D0
:104040001095177041F0D695C79557954795F794F9
:10405000E7941A95C1F7E1EDF0E068941590159199
:1040600035916591959105907FE27395E118F10A7C
:10407000430B560BC90BD009C0F7E10CF11E431FCF
:10408000561FC91FD01D7EF4703311F48A95E6CFF8
:10409000E894015030F0080F0AF40027021708F4E2
:1040A000202F2395022F7A3328F079E37D932A95E8
:1040B000E9F710C07D932A9589F606949795679540
:1040C000379517951794E118F10A430B560BC90B56
:1040D000D00998F023957E9173957A3308F070E3B8
:1040E0007C932013B8F77E9170617D9330F08395B7
:1040F00071E37D9370E32A95E1F71124EF90FF902F
:104100000F911F91CF91DF91992787FD9095089589
:10411000992788270895FB01DC014150504088F021
:104120008D9181341CF08B350CF4805E6591613487
:104130001CF06B350CF4605E861B611171F3990BFA
:104140000895881BFCCFDC01FC01672F7191772358
:10415000E1F7329704C07C916D9370836291AE1742
:10416000BF07C8F308952F923F924F925F926F92CC
:104170007F928F929F92AF92BF92CF92DF92EF92F7
:10418000FF920F931F93CF93DF93CDB7DEB7CA1B78
:10419000DB0B0FB6F894DEBF0FBECDBF09942A88A3
:1041A000398848885F846E847D848C849B84AA844B
:1041B000B984C884DF80EE80FD800C811B81AA81D8
:1041C000B981CE0FD11D0FB6F894DEBF0FBECDBFA3
:1041D000ED01089511E0CAE1D1E004C0FE010E94A2
:0E41E0004C1A2196CB31D107C9F7F894FFCFC6
:1041EE0000001C04800020204E4E4E45204E4545BA
:1041FE004E452020454553452053455353452020D9
:10420E0053535357205357575357202057574E57F2
:10421E00204E574E4E575B005D007B2273746174C7
:10422E00223A002C226753746174223A002C226CBD
:10423E006174223A002C226C6E67223A002C2264A2
:10424E00697374223A002C22617A6D223A007D0045
:10425E002C00636377002B667764002B6277640013
:10426E002B7472002B746C002B73746F70002B7296
:10427E006561643B000000000009093809A608D2F8
:10428E0008A908B008C30800000000E31111138547
:0C429E0011C3115711711163110D0A00BA
:00000001FF
