:100000000C9461000C947E000C947E000C947E0095
:100010000C947E000C947E000C947E000C947E0068
:100020000C947E000C947E000C947E000C947E0058
:100030000C947E000C947E000C947E000C947E0048
:100040000C9428010C947E000C947E000C947E008D
:100050000C947E000C947E000C947E000C947E0028
:100060000C947E000C947E00000000090003020046
:10007000000405080000000000000000000000016E
:10008000020408102040800102040810200102042C
:100090000810204080400404040404040404020204
:1000A000020202020303030303030202030000002F
:1000B00000250028002B0000000000240027002A53
:1000C000000011241FBECFEFD8E0DEBFCDBF11E08E
:1000D000A0E0B1E0ECE0F6E002C005900D92A030A7
:1000E000B107D9F721E0A0E0B1E001C01D92AB302B
:1000F000B207E1F70E94F4020C9404030C94000090
:1001000061E089E00E94890261E08AE00E94890240
:1001100061E083E10E94890280918100887F816093
:1001200080938100109201011092000180910001E2
:100130009091010161E00397ECF483E10E94C50214
:1001400064EF71E080E090E00E94970160E083E15D
:100150000E94C50264EF71E080E090E00E94970188
:10016000809100019091010101969093010180938B
:100170000001DCCF83E10C94C502109201011092C2
:10018000000160910001709101016F3F71058CF4D5
:1001900089E00E94030284E190E00E94D0018091F6
:1001A000000190910101019690930101809300015B
:1001B000E8CF8EEF90E09093010180930001609171
:1001C00000017091010177FD0DC089E00E940302DA
:1001D00084E190E00E94D0018091000190910101A2
:1001E0000197E9CF10920101109200016091000186
:1001F000709101016F3F71058CF48AE00E94030247
:1002000084E190E00E94D001809100019091010171
:1002100001969093010180930001E8CF8EEF90E06A
:1002200090930101809300016091000170910101A0
:1002300077FD0DC08AE00E94030284E190E00E94F5
:10024000D00180910001909101010197E9CF0895BB
:100250001F920F920FB60F9211242F933F938F93FB
:100260009F93AF93BF938091070190910801A09154
:100270000901B0910A013091060123E0230F2D37C7
:1002800068F126E8230F0296A11DB11D20930601F7
:100290008093070190930801A0930901B0930A018C
:1002A0008091020190910301A0910401B091050198
:1002B0000196A11DB11D8093020190930301A093AB
:1002C0000401B0930501BF91AF919F918F913F9130
:1002D0002F910F900FBE0F901F9018950196A11DA2
:1002E000B11DD4CF3FB7F8948091020190910301E2
:1002F000A0910401B091050126B5A89B05C02F3F30
:1003000019F00196A11DB11D3FBFBA2FA92F982F3B
:100310008827BC01CD01620F711D811D911D42E036
:10032000660F771F881F991F4A95D1F708958F92FE
:100330009F92AF92BF92CF92DF92EF92FF926B01AA
:100340007C010E9472014B015C01C114D104E104E3
:10035000F104E9F00E9403030E947201681979090F
:100360008A099B09683E73408105910570F321E07D
:10037000C21AD108E108F10888EE880E83E0981EC1
:10038000A11CB11CC114D104E104F10429F7FF90B0
:10039000EF90DF90CF90BF90AF909F908F90089597
:1003A0008230910538F0880F991F880F991F0597A3
:1003B0000197F1F70895789484B5836084BD85B57D
:1003C000836085BDEEE6F0E0808181608083E1E8B6
:1003D000F0E082E08083808181608083E0E8F0E06B
:1003E000808181608083E1EBF0E0808184608083A4
:1003F000E0EBF0E080818160808387E880937A0081
:100400001092C10008951F93CF93DF93182FEB0133
:1004100061E00E948902209739F460E0812FDF912A
:10042000CF911F910C94C502CF3FD10511F461E02B
:10043000F5CFE12FF0E0E859FF4FE491E43031F1DE
:1004400040F4E230B1F0E330E1F0C038D1057CF7A0
:10045000E4CFE83029F1E93059F1E530B1F7809186
:100460008000806280938000D0938B00C0938A00CC
:1004700004C084B5806884BDC7BDDF91CF911F9152
:10048000089584B5806284BDC8BDF7CF8091800097
:10049000806880938000D0938900C0938800EDCF5E
:1004A0008091B00080688093B000C093B300E5CF26
:1004B0008091B00080628093B000C093B400DDCF23
:1004C000843081F028F48230E9F08330F9F0089527
:1004D000883071F0893091F08530B9F480918000D6
:1004E0008F7D03C0809180008F7780938000089576
:1004F0008091B0008F778093B00008958091B00014
:100500008F7DF9CF84B58F7784BD089584B58F7DB5
:10051000FBCFCF93DF9390E0FC01E158FF4F249194
:100520008A569F4FFC0184918823C9F090E0880F80
:10053000991FFC01E954FF4FA591B491FC01E355CB
:10054000FF4FC591D49161110DC09FB7F8948C9164
:10055000209582238C938881282328839FBFDF9155
:10056000CF910895623051F49FB7F8943C91822F57
:10057000809583238C93E8812E2BEFCF8FB7F8944F
:10058000EC912E2B2C938FBFEACF1F93CF93DF9349
:10059000282F30E0F901E859FF4F8491F901E15823
:1005A000FF4FD491F901EA56FF4FC491CC23A9F033
:1005B000162F81110E946002EC2FF0E0EE0FFF1F5A
:1005C000E355FF4FA591B4918FB7F894EC911111B9
:1005D00008C0D095DE23DC938FBFDF91CF911F91B0
:1005E0000895DE2BF8CF08950E94DB010E94F302EC
:1005F0000E948000C0E0D0E00E94BD002097E1F39F
:0C0600000E940000F9CF0895F894FFCF8D
:00000001FF
